{
  "address": "0x61b2b6Dd094272844c793E63B5aC3094Fe807C62",
  "abi": [
    {
      "constant": true,
      "inputs": [
        {
          "name": "interfaceId",
          "type": "bytes4"
        }
      ],
      "name": "supportsInterface",
      "outputs": [
        {
          "name": "",
          "type": "bool"
        }
      ],
      "payable": false,
      "stateMutability": "view",
      "type": "function"
    },
    {
      "constant": true,
      "inputs": [],
      "name": "implementationMaster",
      "outputs": [
        {
          "name": "",
          "type": "address"
        }
      ],
      "payable": false,
      "stateMutability": "view",
      "type": "function"
    },
    {
      "constant": false,
      "inputs": [
        {
          "name": "consData",
          "type": "bytes"
        }
      ],
      "name": "cloneConstructor",
      "outputs": [],
      "payable": false,
      "stateMutability": "nonpayable",
      "type": "function"
    },
    {
      "constant": false,
      "inputs": [
        {
          "name": "saltNonce",
          "type": "uint256"
        },
        {
          "name": "conditionalTokens",
          "type": "address"
        },
        {
          "name": "collateralToken",
          "type": "address"
        },
        {
          "name": "conditionIds",
          "type": "bytes32[]"
        },
        {
          "name": "fee",
          "type": "uint256"
        },
        {
          "name": "initialFunds",
          "type": "uint256"
        },
        {
          "name": "distributionHint",
          "type": "uint256[]"
        }
      ],
      "name": "create2FixedProductMarketMaker",
      "outputs": [
        {
          "name": "",
          "type": "address"
        }
      ],
      "payable": false,
      "stateMutability": "nonpayable",
      "type": "function"
    },
    {
      "constant": false,
      "inputs": [
        {
          "name": "operator",
          "type": "address"
        },
        {
          "name": "from",
          "type": "address"
        },
        {
          "name": "ids",
          "type": "uint256[]"
        },
        {
          "name": "values",
          "type": "uint256[]"
        },
        {
          "name": "data",
          "type": "bytes"
        }
      ],
      "name": "onERC1155BatchReceived",
      "outputs": [
        {
          "name": "",
          "type": "bytes4"
        }
      ],
      "payable": false,
      "stateMutability": "nonpayable",
      "type": "function"
    },
    {
      "constant": true,
      "inputs": [
        {
          "name": "target",
          "type": "address"
        },
        {
          "name": "saltNonce",
          "type": "uint256"
        },
        {
          "name": "consData",
          "type": "bytes"
        }
      ],
      "name": "getCreate2Address",
      "outputs": [
        {
          "name": "",
          "type": "address"
        }
      ],
      "payable": false,
      "stateMutability": "view",
      "type": "function"
    },
    {
      "constant": false,
      "inputs": [
        {
          "name": "operator",
          "type": "address"
        },
        {
          "name": "from",
          "type": "address"
        },
        {
          "name": "id",
          "type": "uint256"
        },
        {
          "name": "value",
          "type": "uint256"
        },
        {
          "name": "data",
          "type": "bytes"
        }
      ],
      "name": "onERC1155Received",
      "outputs": [
        {
          "name": "",
          "type": "bytes4"
        }
      ],
      "payable": false,
      "stateMutability": "nonpayable",
      "type": "function"
    },
    {
      "inputs": [],
      "payable": false,
      "stateMutability": "nonpayable",
      "type": "constructor"
    },
    {
      "anonymous": false,
      "inputs": [
        {
          "indexed": true,
          "name": "creator",
          "type": "address"
        },
        {
          "indexed": false,
          "name": "fixedProductMarketMaker",
          "type": "address"
        },
        {
          "indexed": false,
          "name": "conditionalTokens",
          "type": "address"
        },
        {
          "indexed": false,
          "name": "collateralToken",
          "type": "address"
        },
        {
          "indexed": false,
          "name": "conditionIds",
          "type": "bytes32[]"
        },
        {
          "indexed": false,
          "name": "fee",
          "type": "uint256"
        }
      ],
      "name": "FixedProductMarketMakerCreation",
      "type": "event"
    },
    {
      "anonymous": false,
      "inputs": [
        {
          "indexed": true,
          "name": "funder",
          "type": "address"
        },
        {
          "indexed": false,
          "name": "amountsAdded",
          "type": "uint256[]"
        },
        {
          "indexed": false,
          "name": "sharesMinted",
          "type": "uint256"
        }
      ],
      "name": "FPMMFundingAdded",
      "type": "event"
    },
    {
      "anonymous": false,
      "inputs": [
        {
          "indexed": true,
          "name": "funder",
          "type": "address"
        },
        {
          "indexed": false,
          "name": "amountsRemoved",
          "type": "uint256[]"
        },
        {
          "indexed": false,
          "name": "collateralRemovedFromFeePool",
          "type": "uint256"
        },
        {
          "indexed": false,
          "name": "sharesBurnt",
          "type": "uint256"
        }
      ],
      "name": "FPMMFundingRemoved",
      "type": "event"
    },
    {
      "anonymous": false,
      "inputs": [
        {
          "indexed": true,
          "name": "buyer",
          "type": "address"
        },
        {
          "indexed": false,
          "name": "investmentAmount",
          "type": "uint256"
        },
        {
          "indexed": false,
          "name": "feeAmount",
          "type": "uint256"
        },
        {
          "indexed": true,
          "name": "outcomeIndex",
          "type": "uint256"
        },
        {
          "indexed": false,
          "name": "outcomeTokensBought",
          "type": "uint256"
        }
      ],
      "name": "FPMMBuy",
      "type": "event"
    },
    {
      "anonymous": false,
      "inputs": [
        {
          "indexed": true,
          "name": "seller",
          "type": "address"
        },
        {
          "indexed": false,
          "name": "returnAmount",
          "type": "uint256"
        },
        {
          "indexed": false,
          "name": "feeAmount",
          "type": "uint256"
        },
        {
          "indexed": true,
          "name": "outcomeIndex",
          "type": "uint256"
        },
        {
          "indexed": false,
          "name": "outcomeTokensSold",
          "type": "uint256"
        }
      ],
      "name": "FPMMSell",
      "type": "event"
    },
    {
      "anonymous": false,
      "inputs": [
        {
          "indexed": true,
          "name": "target",
          "type": "address"
        },
        {
          "indexed": false,
          "name": "clone",
          "type": "address"
        }
      ],
      "name": "CloneCreated",
      "type": "event"
    }
  ],
  "transactionHash": "0xabf4976285577e0dd8591edb0e288ca89c438fc20e7b8c62b6d8b2e5cc1823a8",
  "args": [],
  "numDeployments": 1,
  "solcInputHash": "24aca148f4ac279553121675c65cc71c",
  "bytecode": "0x60806040523480156200001157600080fd5b506200002a6301ffc9a760e01b620000f160201b60201c565b6200007f600073ffffffffffffffffffffffffffffffffffffffff1663bc197c81905060e01b600073ffffffffffffffffffffffffffffffffffffffff1663f23a6e61905060e01b18620000f160201b60201c565b6040516200008d90620001fd565b604051809103906000f080158015620000aa573d6000803e3d6000fd5b50600f60006101000a81548173ffffffffffffffffffffffffffffffffffffffff021916908373ffffffffffffffffffffffffffffffffffffffff1602179055506200020b565b63ffffffff60e01b817bffffffffffffffffffffffffffffffffffffffffffffffffffffffff19161415151562000190576040517f08c379a000000000000000000000000000000000000000000000000000000000815260040180806020018281038252601c8152602001807f4552433136353a20696e76616c696420696e746572666163652069640000000081525060200191505060405180910390fd5b6001600e6000837bffffffffffffffffffffffffffffffffffffffffffffffffffffffff19167bffffffffffffffffffffffffffffffffffffffffffffffffffffffff1916815260200190815260200160002060006101000a81548160ff02191690831515021790555050565b6145db8062002eb483390190565b612c99806200021b6000396000f3fe608060405234801561001057600080fd5b506004361061007d5760003560e01c806382e90fa01161005b57806382e90fa0146101aa578063bc197c8114610316578063d401b0f3146104cb578063f23a6e61146105f05761007d565b806301ffc9a71461008257806312b4d20c146100e757806352e831dd14610131575b600080fd5b6100cd6004803603602081101561009857600080fd5b8101908080357bffffffffffffffffffffffffffffffffffffffffffffffffffffffff1916906020019092919050505061070f565b604051808215151515815260200191505060405180910390f35b6100ef610777565b604051808273ffffffffffffffffffffffffffffffffffffffff1673ffffffffffffffffffffffffffffffffffffffff16815260200191505060405180910390f35b6101a86004803603602081101561014757600080fd5b810190808035906020019064010000000081111561016457600080fd5b82018360208201111561017657600080fd5b8035906020019184600183028401116401000000008311171561019857600080fd5b909192939192939050505061079d565b005b6102d4600480360360e08110156101c057600080fd5b8101908080359060200190929190803573ffffffffffffffffffffffffffffffffffffffff169060200190929190803573ffffffffffffffffffffffffffffffffffffffff1690602001909291908035906020019064010000000081111561022757600080fd5b82018360208201111561023957600080fd5b8035906020019184602083028401116401000000008311171561025b57600080fd5b909192939192939080359060200190929190803590602001909291908035906020019064010000000081111561029057600080fd5b8201836020820111156102a257600080fd5b803590602001918460208302840111640100000000831117156102c457600080fd5b9091929391929390505050610d02565b604051808273ffffffffffffffffffffffffffffffffffffffff1673ffffffffffffffffffffffffffffffffffffffff16815260200191505060405180910390f35b610477600480360360a081101561032c57600080fd5b81019080803573ffffffffffffffffffffffffffffffffffffffff169060200190929190803573ffffffffffffffffffffffffffffffffffffffff1690602001909291908035906020019064010000000081111561038957600080fd5b82018360208201111561039b57600080fd5b803590602001918460208302840111640100000000831117156103bd57600080fd5b9091929391929390803590602001906401000000008111156103de57600080fd5b8201836020820111156103f057600080fd5b8035906020019184602083028401116401000000008311171561041257600080fd5b90919293919293908035906020019064010000000081111561043357600080fd5b82018360208201111561044557600080fd5b8035906020019184600183028401116401000000008311171561046757600080fd5b9091929391929390505050611387565b60405180827bffffffffffffffffffffffffffffffffffffffffffffffffffffffff19167bffffffffffffffffffffffffffffffffffffffffffffffffffffffff1916815260200191505060405180910390f35b6105ae600480360360608110156104e157600080fd5b81019080803573ffffffffffffffffffffffffffffffffffffffff169060200190929190803590602001909291908035906020019064010000000081111561052857600080fd5b82018360208201111561053a57600080fd5b8035906020019184600183028401116401000000008311171561055c57600080fd5b91908080601f016020809104026020016040519081016040528093929190818152602001838380828437600081840152601f19601f82011690508083019250505050505050919291929050505061152e565b604051808273ffffffffffffffffffffffffffffffffffffffff1673ffffffffffffffffffffffffffffffffffffffff16815260200191505060405180910390f35b6106bb600480360360a081101561060657600080fd5b81019080803573ffffffffffffffffffffffffffffffffffffffff169060200190929190803573ffffffffffffffffffffffffffffffffffffffff16906020019092919080359060200190929190803590602001909291908035906020019064010000000081111561067757600080fd5b82018360208201111561068957600080fd5b803590602001918460018302840111640100000000831117156106ab57600080fd5b909192939192939050505061171d565b60405180827bffffffffffffffffffffffffffffffffffffffffffffffffffffffff19167bffffffffffffffffffffffffffffffffffffffffffffffffffffffff1916815260200191505060405180910390f35b6000600e6000837bffffffffffffffffffffffffffffffffffffffffffffffffffffffff19167bffffffffffffffffffffffffffffffffffffffffffffffffffffffff1916815260200190815260200160002060009054906101000a900460ff169050919050565b600f60009054906101000a900473ffffffffffffffffffffffffffffffffffffffff1681565b60008060606000858560808110156107b457600080fd5b81019080803573ffffffffffffffffffffffffffffffffffffffff169060200190929190803573ffffffffffffffffffffffffffffffffffffffff1690602001909291908035906020019064010000000081111561081157600080fd5b82018360208201111561082357600080fd5b8035906020019184602083028401116401000000008311171561084557600080fd5b919080806020026020016040519081016040528093929190818152602001838360200280828437600081840152601f19601f8201169050808301925050505050505091929192908035906020019092919050505093509350935093506001600360006301ffc9a760e01b7bffffffffffffffffffffffffffffffffffffffffffffffffffffffff19167bffffffffffffffffffffffffffffffffffffffffffffffffffffffff1916815260200190815260200160002060006101000a81548160ff0219169083151502179055506001600360008073ffffffffffffffffffffffffffffffffffffffff1663bc197c81905060e01b600073ffffffffffffffffffffffffffffffffffffffff1663f23a6e61905060e01b187bffffffffffffffffffffffffffffffffffffffffffffffffffffffff19167bffffffffffffffffffffffffffffffffffffffffffffffffffffffff1916815260200190815260200160002060006101000a81548160ff02191690831515021790555083600460006101000a81548173ffffffffffffffffffffffffffffffffffffffff021916908373ffffffffffffffffffffffffffffffffffffffff16021790555082600560006101000a81548173ffffffffffffffffffffffffffffffffffffffff021916908373ffffffffffffffffffffffffffffffffffffffff1602179055508160069080519060200190610a57929190612a6d565b5080600781905550600060019050600680549050604051908082528060200260200182016040528015610a995781602001602082028038833980820191505090505b5060099080519060200190610aaf929190612aba565b5060008090505b600680549050811015610bbf576000600460009054906101000a900473ffffffffffffffffffffffffffffffffffffffff1673ffffffffffffffffffffffffffffffffffffffff1663d42dc0c2600684815481101515610b1257fe5b90600052602060002001546040518263ffffffff1660e01b81526004018082815260200191505060206040518083038186803b158015610b5157600080fd5b505afa158015610b65573d6000803e3d6000fd5b505050506040513d6020811015610b7b57600080fd5b81019080805190602001909291905050509050808302925080600983815481101515610ba357fe5b9060005260206000200181905550508080600101915050610ab6565b50600181111515610c38576040517f08c379a00000000000000000000000000000000000000000000000000000000081526004018080602001828103825260188152602001807f636f6e646974696f6e73206d7573742062652076616c6964000000000000000081525060200191505060405180910390fd5b600680549050604051908082528060200260200182016040528015610c7157816020015b6060815260200190600190039081610c5c5790505b50600a9080519060200190610c87929190612b07565b50610c9a6006805490506000801b611864565b80600b80549050141515610cf9576040517f08c379a0000000000000000000000000000000000000000000000000000000008152600401808060200182810382526022815260200180612c4c6022913960400191505060405180910390fd5b50505050505050565b600080610df0600f60009054906101000a900473ffffffffffffffffffffffffffffffffffffffff168c8c8c8c8c8c604051602001808673ffffffffffffffffffffffffffffffffffffffff1673ffffffffffffffffffffffffffffffffffffffff1681526020018573ffffffffffffffffffffffffffffffffffffffff1673ffffffffffffffffffffffffffffffffffffffff168152602001806020018381526020018281038252858582818152602001925060200280828437600081840152601f19601f8201169050808301925050509650505050505050604051602081830303815290604052611986565b90503373ffffffffffffffffffffffffffffffffffffffff167f92e0912d3d7f3192cad5c7ae3b47fb97f9c465c1dd12a5c24fd901ddb3905f43828c8c8c8c8c604051808773ffffffffffffffffffffffffffffffffffffffff1673ffffffffffffffffffffffffffffffffffffffff1681526020018673ffffffffffffffffffffffffffffffffffffffff1673ffffffffffffffffffffffffffffffffffffffff1681526020018573ffffffffffffffffffffffffffffffffffffffff1673ffffffffffffffffffffffffffffffffffffffff168152602001806020018381526020018281038252858582818152602001925060200280828437600081840152601f19601f82011690508083019250505097505050505050505060405180910390a260008511156113765733601060006101000a81548173ffffffffffffffffffffffffffffffffffffffff021916908373ffffffffffffffffffffffffffffffffffffffff1602179055508873ffffffffffffffffffffffffffffffffffffffff166323b872dd3330886040518463ffffffff1660e01b8152600401808473ffffffffffffffffffffffffffffffffffffffff1673ffffffffffffffffffffffffffffffffffffffff1681526020018373ffffffffffffffffffffffffffffffffffffffff1673ffffffffffffffffffffffffffffffffffffffff1681526020018281526020019350505050602060405180830381600087803b15801561101857600080fd5b505af115801561102c573d6000803e3d6000fd5b505050506040513d602081101561104257600080fd5b8101908080519060200190929190505050508873ffffffffffffffffffffffffffffffffffffffff1663095ea7b382876040518363ffffffff1660e01b8152600401808373ffffffffffffffffffffffffffffffffffffffff1673ffffffffffffffffffffffffffffffffffffffff16815260200182815260200192505050602060405180830381600087803b1580156110db57600080fd5b505af11580156110ef573d6000803e3d6000fd5b505050506040513d602081101561110557600080fd5b8101908080519060200190929190505050508073ffffffffffffffffffffffffffffffffffffffff1663d5f15a468686866040518463ffffffff1660e01b815260040180848152602001806020018281038252848482818152602001925060200280828437600081840152601f19601f820116905080830192505050945050505050600060405180830381600087803b1580156111a157600080fd5b505af11580156111b5573d6000803e3d6000fd5b505050508073ffffffffffffffffffffffffffffffffffffffff1663a9059cbb338373ffffffffffffffffffffffffffffffffffffffff166370a08231306040518263ffffffff1660e01b8152600401808273ffffffffffffffffffffffffffffffffffffffff1673ffffffffffffffffffffffffffffffffffffffff16815260200191505060206040518083038186803b15801561125357600080fd5b505afa158015611267573d6000803e3d6000fd5b505050506040513d602081101561127d57600080fd5b81019080805190602001909291905050506040518363ffffffff1660e01b8152600401808373ffffffffffffffffffffffffffffffffffffffff1673ffffffffffffffffffffffffffffffffffffffff16815260200182815260200192505050602060405180830381600087803b1580156112f757600080fd5b505af115801561130b573d6000803e3d6000fd5b505050506040513d602081101561132157600080fd5b8101908080519060200190929190505050506000601060006101000a81548173ffffffffffffffffffffffffffffffffffffffff021916908373ffffffffffffffffffffffffffffffffffffffff1602179055505b809150509998505050505050505050565b60003373ffffffffffffffffffffffffffffffffffffffff16632eb2c2d630601060009054906101000a900473ffffffffffffffffffffffffffffffffffffffff168a8a8a8a8a8a6040518963ffffffff1660e01b8152600401808973ffffffffffffffffffffffffffffffffffffffff1673ffffffffffffffffffffffffffffffffffffffff1681526020018873ffffffffffffffffffffffffffffffffffffffff1673ffffffffffffffffffffffffffffffffffffffff16815260200180602001806020018060200184810384528a8a82818152602001925060200280828437600081840152601f19601f8201169050808301925050508481038352888882818152602001925060200280828437600081840152601f19601f8201169050808301925050508481038252868682818152602001925080828437600081840152601f19601f8201169050808301925050509b505050505050505050505050600060405180830381600087803b15801561150057600080fd5b505af1158015611514573d6000803e3d6000fd5b5050505063bc197c8160e01b905098975050505050505050565b6000803384604051602001808373ffffffffffffffffffffffffffffffffffffffff1673ffffffffffffffffffffffffffffffffffffffff16815260200182815260200192505050604051602081830303815290604052805190602001209050600060ff60f81b30838887604051602001808373ffffffffffffffffffffffffffffffffffffffff1673ffffffffffffffffffffffffffffffffffffffff16815260200180602001828103825283818151815260200191508051906020019080838360005b8381101561160e5780820151818401526020810190506115f3565b50505050905090810190601f16801561163b5780820380516001836020036101000a031916815260200191505b5093505050506040516020818303038152906040528051906020012060405160200180857effffffffffffffffffffffffffffffffffffffffffffffffffffffffffffff19167effffffffffffffffffffffffffffffffffffffffffffffffffffffffffffff191681526001018473ffffffffffffffffffffffffffffffffffffffff1673ffffffffffffffffffffffffffffffffffffffff1660601b81526014018381526020018281526020019450505050506040516020818303038152906040528051906020012090506000601482015190508093505050509392505050565b60003373ffffffffffffffffffffffffffffffffffffffff1663f242432a30601060009054906101000a900473ffffffffffffffffffffffffffffffffffffffff16888888886040518763ffffffff1660e01b8152600401808773ffffffffffffffffffffffffffffffffffffffff1673ffffffffffffffffffffffffffffffffffffffff1681526020018673ffffffffffffffffffffffffffffffffffffffff1673ffffffffffffffffffffffffffffffffffffffff168152602001858152602001848152602001806020018281038252848482818152602001925080828437600081840152601f19601f820116905080830192505050975050505050505050600060405180830381600087803b15801561183857600080fd5b505af115801561184c573d6000803e3d6000fd5b5050505063f23a6e6160e01b90509695505050505050565b60008214156118c957600b61189b600560009054906101000a900473ffffffffffffffffffffffffffffffffffffffff1683611ced565b9080600181540180825580915050906001820390600052602060002001600090919290919091505550611982565b81806001900392505060006009838154811015156118e357fe5b90600052602060002001549050600a838154811015156118ff57fe5b9060005260206000200182908060018154018082558091505090600182039060005260206000200160009091929091909150555060008090505b8181101561197f576119728461196d8560068881548110151561195857fe5b9060005260206000200154856001901b611d58565b611864565b8080600101915050611939565b50505b5050565b60006060826040516024018080602001828103825283818151815260200191508051906020019080838360005b838110156119ce5780820151818401526020810190506119b3565b50505050905090810190601f1680156119fb5780820380516001836020036101000a031916815260200191505b50925050506040516020818303038152906040527f52e831dd000000000000000000000000000000000000000000000000000000007bffffffffffffffffffffffffffffffffffffffffffffffffffffffff19166020820180517bffffffffffffffffffffffffffffffffffffffffffffffffffffffff83818316178352505050509050606060638251016040519080825280601f01601f191660200182016040528015611ab85781602001600182028038833980820191505090505b5090507f3d3d606380380380913d393d73bebebebebebebebebebebebebebebebebebebe60208201526c010000000000000000000000003002602d8201527f5af4602a57600080fd5b602d8060366000396000f3363d3d373d3d3d363d73be60418201526c01000000000000000000000000860260608201527f5af43d82803e903d91602b57fd5bf30000000000000000000000000000000000607482015260008090505b8251811015611bce578281815181101515611b7457fe5b90602001015160f81c60f81b8282606301815181101515611b9157fe5b9060200101907effffffffffffffffffffffffffffffffffffffffffffffffffffffffffffff1916908160001a9053508080600101915050611b5d565b5060003386604051602001808373ffffffffffffffffffffffffffffffffffffffff1673ffffffffffffffffffffffffffffffffffffffff168152602001828152602001925050506040516020818303038152906040528051906020012090508151602083018282826000f595505050600073ffffffffffffffffffffffffffffffffffffffff168473ffffffffffffffffffffffffffffffffffffffff1614151515611ce3576040517f08c379a000000000000000000000000000000000000000000000000000000000815260040180806020018281038252600e8152602001807f63726561746532206661696c656400000000000000000000000000000000000081525060200191505060405180910390fd5b5050509392505050565b60008282604051602001808373ffffffffffffffffffffffffffffffffffffffff1673ffffffffffffffffffffffffffffffffffffffff1660601b8152601401828152602001925050506040516020818303038152906040528051906020012060001c905092915050565b600080838360405160200180838152602001828152602001925050506040516020818303038152906040528051906020012060001c905060008060ff83901c141590506000805b7f30644e72e131a029b85045b68181585d97816a916871ca8d3c208c16d87cfd47801515611dc957fe5b6001850893507f30644e72e131a029b85045b68181585d97816a916871ca8d3c208c16d87cfd47801515611df957fe5b60037f30644e72e131a029b85045b68181585d97816a916871ca8d3c208c16d87cfd47801515611e2557fe5b7f30644e72e131a029b85045b68181585d97816a916871ca8d3c208c16d87cfd47801515611e4f57fe5b8788098709089050611e60816122b2565b9150807f30644e72e131a029b85045b68181585d97816a916871ca8d3c208c16d87cfd47801515611e8d57fe5b83840914151515611d9f57828015611eb157506000600283811515611eae57fe5b06145b80611ed2575082158015611ed157506001600283811515611ece57fe5b06145b5b15611efd57817f30644e72e131a029b85045b68181585d97816a916871ca8d3c208c16d87cfd470391505b60008860001c905060008114151561226557600060fe82901c1415935060028082901b901c90507f30644e72e131a029b85045b68181585d97816a916871ca8d3c208c16d87cfd47801515611f4e57fe5b60037f30644e72e131a029b85045b68181585d97816a916871ca8d3c208c16d87cfd47801515611f7a57fe5b7f30644e72e131a029b85045b68181585d97816a916871ca8d3c208c16d87cfd47801515611fa457fe5b84850984090891506000611fb7836122b2565b9050848015611fd257506000600282811515611fcf57fe5b06145b80611ff3575084158015611ff257506001600282811515611fef57fe5b06145b5b1561201e57807f30644e72e131a029b85045b68181585d97816a916871ca8d3c208c16d87cfd470390505b827f30644e72e131a029b85045b68181585d97816a916871ca8d3c208c16d87cfd4780151561204957fe5b8283091415156120c1576040517f08c379a000000000000000000000000000000000000000000000000000000000815260040180806020018281038252601c8152602001807f696e76616c696420706172656e7420636f6c6c656374696f6e2049440000000081525060200191505060405180910390fd5b60006060600673ffffffffffffffffffffffffffffffffffffffff1688878686604051602001808581526020018481526020018381526020018281526020019450505050506040516020818303038152906040526040518082805190602001908083835b60208310151561214a5780518252602082019150602081019050602083039250612125565b6001836020036101000a038019825116818451168082178552505050505050905001915050600060405180830381855afa9150503d80600081146121aa576040519150601f19603f3d011682016040523d82523d6000602084013e6121af565b606091505b5091509150811515612229576040517f08c379a000000000000000000000000000000000000000000000000000000000815260040180806020018281038252600c8152602001807f6563616464206661696c6564000000000000000000000000000000000000000081525060200191505060405180910390fd5b80806020019051604081101561223e57600080fd5b81019080805190602001909291908051906020019092919050505080975081995050505050505b600160028481151561227357fe5b0614156122a0577f4000000000000000000000000000000000000000000000000000000000000000851894505b8460001b955050505050509392505050565b6000807f30644e72e131a029b85045b68181585d97816a916871ca8d3c208c16d87cfd47905080838409915080828309818182099050818184099250818385099350818484099250818384099050818182098281830990508281820990508281820990508281830991508282860994508285860991508282830991508282850993508284850991508282830991508282830991508282850991508282860994508285860991508282830991508282830991508282860991508282850993508284860994508285860991508282830991508282850993508284850991508282830990508281820990508281820990508281830991508282860994508285850993508284850991508282830991508282830991508282860994508285860991508282830991508282860991508282830991508282830991508282860991508282850993508284850991508282830990508281820990508281830990508281850990508281820990508281820990508281820990508281820990508281830991508282860994508285860991508282860991508282850993508284850991508282850991508282830991508282830990508281830990508281820983818209905083818209905083818209905083818209905083818309915050828183099150828286099450828585099350828485099150828286099450828585099350828486099450828585099350828486099450828586099150828286099150828283099150828285099350828485099150828283099150828286099450828585099350828485099150828285099150828286099450828585099350828486099450828585099350828485099150828283099150828285099150828286099450828586099150828286099150828285099350828486099450828585099350828486099450828585099350828485099150828285099150828283099150828286099450828585099350828485099150828285099150828283099150828286099450828586099150828283099050828182099050828183099050828186099050828182099050828182099050828182099050828182099050828183099150828285099350828486099450828585099350828486099450828586099150828286099150828283099150828283099150828283099150828286099150828285099350828485099150828285099150828283099150828286099450828586099150828286099150828285099350828486099450828586099150828283099150828285099350828486099450828586099150828285099350828486099450828585099350828485099150828285099150828286099450828585099350828485099150828285099150828283099150828283099150828286099450828586099150828283099150828283099150828286099150828285099350828486099450828586099150828286099050828182099050828182099050828183099150828285099350828485099150828286099450828585099350828486099450828585099350828486099450828585099350828485099150828285099050828185099150828283099150828283099150828282099150508181850993508184840992508183850993508184840992508183850993508184850990508181850990508181840992505080828409925080838409925080838409925080838409925080838409925080838409925080838409925080838409925080838409925080838409925080838409925080838409925080838409925080838409925080838409925080838409925080838409925080838409925080838409925080838409925080838409925080838409925080838409925080838409925080838409925080838409925080838409925080838409925080838409925080838409925080838409925080838409925080838409925080838409925080838409925080838409925080838409925080838409925080838409925080838409925080838409925080838409925080838409925080838409925080838409925080838409925080838409925080838409925080838409925080838409925080838409925080838409925080838409925080838409925080838409925080838409925080838409925080838409925080838409925080838409925080838409925080838409925080838409925080838409925080838409925080838409925080838409925080838409925080838409925080838409925080838409925080838409925080838409925080838409925080838409925080838409925080838409925080838409925080838409925080838409925080838409925080838409925080838409925080838409925080838409925080838409925080838409925080838409925080838409925080838409925080838409925080838409925080838409925080838409925080838409925080838409925080838409925080838409925080838409925080838409925080838409925080838409925080838409925080838409925080838409925080838409925080838409925080838409925080838409925080838409925080838409925080838409925080838409925080838409925080838409925080838409925080838409925080838409925080838409925080838409925080838409925080838409925080838409925080838409925080838409925080838409925080838409925080838309915050919050565b828054828255906000526020600020908101928215612aa9579160200282015b82811115612aa8578251825591602001919060010190612a8d565b5b509050612ab69190612b67565b5090565b828054828255906000526020600020908101928215612af6579160200282015b82811115612af5578251825591602001919060010190612ada565b5b509050612b039190612b8c565b5090565b828054828255906000526020600020908101928215612b56579160200282015b82811115612b55578251829080519060200190612b45929190612bb1565b5091602001919060010190612b27565b5b509050612b639190612bfe565b5090565b612b8991905b80821115612b85576000816000905550600101612b6d565b5090565b90565b612bae91905b80821115612baa576000816000905550600101612b92565b5090565b90565b828054828255906000526020600020908101928215612bed579160200282015b82811115612bec578251825591602001919060010190612bd1565b5b509050612bfa9190612b67565b5090565b612c2791905b80821115612c235760008181612c1a9190612c2a565b50600101612c04565b5090565b90565b5080546000825590600052602060002090810190612c489190612b67565b5056fe706f736974696f6e2049447320636f6e737472756374696f6e206661696c6564213fa165627a7a72305820918136d26405810593069d4346cb6334ed8febbd3cb2006c6c593a480f4cfdff002960806040526200001c6301ffc9a760e01b6200007760201b60201c565b62000071600073ffffffffffffffffffffffffffffffffffffffff1663bc197c81905060e01b600073ffffffffffffffffffffffffffffffffffffffff1663f23a6e61905060e01b186200007760201b60201c565b62000183565b63ffffffff60e01b817bffffffffffffffffffffffffffffffffffffffffffffffffffffffff19161415151562000116576040517f08c379a000000000000000000000000000000000000000000000000000000000815260040180806020018281038252601c8152602001807f4552433136353a20696e76616c696420696e746572666163652069640000000081525060200191505060405180910390fd5b600160036000837bffffffffffffffffffffffffffffffffffffffffffffffffffffffff19167bffffffffffffffffffffffffffffffffffffffffffffffffffffffff1916815260200190815260200160002060006101000a81548160ff02191690831515021790555050565b61444880620001936000396000f3fe608060405234801561001057600080fd5b50600436106101585760003560e01c8063a457c2d7116100c3578063d8c55af71161007c578063d8c55af7146108ac578063dd62ed3e146108ee578063ddca3f4314610966578063e03031a614610984578063f23a6e61146109b2578063f55c79d014610ad157610158565b8063a457c2d71461051c578063a9059cbb14610582578063b2016bd4146105e8578063bc197c8114610632578063d3c9727c146107e7578063d5f15a461461082957610158565b80633950935111610115578063395093511461036857806340993b26146103ce5780634343116a146104105780635bd9e2991461045c57806370a08231146104a65780639003adfe146104fe57610158565b806301ffc9a71461015d578063095ea7b3146101c2578063164e68de1461022857806316dbd7761461026c57806318160ddd146102c457806323b872dd146102e2575b600080fd5b6101a86004803603602081101561017357600080fd5b8101908080357bffffffffffffffffffffffffffffffffffffffffffffffffffffffff19169060200190929190505050610b1d565b604051808215151515815260200191505060405180910390f35b61020e600480360360408110156101d857600080fd5b81019080803573ffffffffffffffffffffffffffffffffffffffff16906020019092919080359060200190929190505050610b85565b604051808215151515815260200191505060405180910390f35b61026a6004803603602081101561023e57600080fd5b81019080803573ffffffffffffffffffffffffffffffffffffffff169060200190929190505050610b9c565b005b6102ae6004803603602081101561028257600080fd5b81019080803573ffffffffffffffffffffffffffffffffffffffff169060200190929190505050610deb565b6040518082815260200191505060405180910390f35b6102cc610e79565b6040518082815260200191505060405180910390f35b61034e600480360360608110156102f857600080fd5b81019080803573ffffffffffffffffffffffffffffffffffffffff169060200190929190803573ffffffffffffffffffffffffffffffffffffffff16906020019092919080359060200190929190505050610e83565b604051808215151515815260200191505060405180910390f35b6103b46004803603604081101561037e57600080fd5b81019080803573ffffffffffffffffffffffffffffffffffffffff16906020019092919080359060200190929190505050610f34565b604051808215151515815260200191505060405180910390f35b61040e600480360360608110156103e457600080fd5b81019080803590602001909291908035906020019092919080359060200190929190505050610fd9565b005b6104466004803603604081101561042657600080fd5b81019080803590602001909291908035906020019092919050505061155d565b6040518082815260200191505060405180910390f35b6104646117a8565b604051808273ffffffffffffffffffffffffffffffffffffffff1673ffffffffffffffffffffffffffffffffffffffff16815260200191505060405180910390f35b6104e8600480360360208110156104bc57600080fd5b81019080803573ffffffffffffffffffffffffffffffffffffffff1690602001909291905050506117ce565b6040518082815260200191505060405180910390f35b610506611816565b6040518082815260200191505060405180910390f35b6105686004803603604081101561053257600080fd5b81019080803573ffffffffffffffffffffffffffffffffffffffff16906020019092919080359060200190929190505050611834565b604051808215151515815260200191505060405180910390f35b6105ce6004803603604081101561059857600080fd5b81019080803573ffffffffffffffffffffffffffffffffffffffff169060200190929190803590602001909291905050506118d9565b604051808215151515815260200191505060405180910390f35b6105f06118f0565b604051808273ffffffffffffffffffffffffffffffffffffffff1673ffffffffffffffffffffffffffffffffffffffff16815260200191505060405180910390f35b610793600480360360a081101561064857600080fd5b81019080803573ffffffffffffffffffffffffffffffffffffffff169060200190929190803573ffffffffffffffffffffffffffffffffffffffff169060200190929190803590602001906401000000008111156106a557600080fd5b8201836020820111156106b757600080fd5b803590602001918460208302840111640100000000831117156106d957600080fd5b9091929391929390803590602001906401000000008111156106fa57600080fd5b82018360208201111561070c57600080fd5b8035906020019184602083028401116401000000008311171561072e57600080fd5b90919293919293908035906020019064010000000081111561074f57600080fd5b82018360208201111561076157600080fd5b8035906020019184600183028401116401000000008311171561078357600080fd5b9091929391929390505050611916565b60405180827bffffffffffffffffffffffffffffffffffffffffffffffffffffffff19167bffffffffffffffffffffffffffffffffffffffffffffffffffffffff1916815260200191505060405180910390f35b610827600480360360608110156107fd57600080fd5b810190808035906020019092919080359060200190929190803590602001909291905050506119a7565b005b6108aa6004803603604081101561083f57600080fd5b81019080803590602001909291908035906020019064010000000081111561086657600080fd5b82018360208201111561087857600080fd5b8035906020019184602083028401116401000000008311171561089a57600080fd5b9091929391929390505050611d91565b005b6108d8600480360360208110156108c257600080fd5b810190808035906020019092919050505061273e565b6040518082815260200191505060405180910390f35b6109506004803603604081101561090457600080fd5b81019080803573ffffffffffffffffffffffffffffffffffffffff169060200190929190803573ffffffffffffffffffffffffffffffffffffffff169060200190929190505050612761565b6040518082815260200191505060405180910390f35b61096e6127e8565b6040518082815260200191505060405180910390f35b6109b06004803603602081101561099a57600080fd5b81019080803590602001909291905050506127ee565b005b610a7d600480360360a08110156109c857600080fd5b81019080803573ffffffffffffffffffffffffffffffffffffffff169060200190929190803573ffffffffffffffffffffffffffffffffffffffff169060200190929190803590602001909291908035906020019092919080359060200190640100000000811115610a3957600080fd5b820183602082011115610a4b57600080fd5b80359060200191846001830284011164010000000083111715610a6d57600080fd5b9091929391929390505050612cb6565b60405180827bffffffffffffffffffffffffffffffffffffffffffffffffffffffff19167bffffffffffffffffffffffffffffffffffffffffffffffffffffffff1916815260200191505060405180910390f35b610b0760048036036040811015610ae757600080fd5b810190808035906020019092919080359060200190929190505050612d0d565b6040518082815260200191505060405180910390f35b600060036000837bffffffffffffffffffffffffffffffffffffffffffffffffffffffff19167bffffffffffffffffffffffffffffffffffffffffffffffffffffffff1916815260200190815260200160002060009054906101000a900460ff169050919050565b6000610b92338484612f50565b6001905092915050565b6000610ba6610e79565b610bc3610bb2846117ce565b60085461314b90919063ffffffff16565b811515610bcc57fe5b0490506000610c23600c60008573ffffffffffffffffffffffffffffffffffffffff1673ffffffffffffffffffffffffffffffffffffffff16815260200190815260200160002054836131d590919063ffffffff16565b90506000811115610de65781600c60008573ffffffffffffffffffffffffffffffffffffffff1673ffffffffffffffffffffffffffffffffffffffff16815260200190815260200160002081905550610c8781600d5461321f90919063ffffffff16565b600d81905550600560009054906101000a900473ffffffffffffffffffffffffffffffffffffffff1673ffffffffffffffffffffffffffffffffffffffff1663a9059cbb84836040518363ffffffff1660e01b8152600401808373ffffffffffffffffffffffffffffffffffffffff1673ffffffffffffffffffffffffffffffffffffffff16815260200182815260200192505050602060405180830381600087803b158015610d3657600080fd5b505af1158015610d4a573d6000803e3d6000fd5b505050506040513d6020811015610d6057600080fd5b81019080805190602001909291905050501515610de5576040517f08c379a000000000000000000000000000000000000000000000000000000000815260040180806020018281038252601a8152602001807f7769746864726177616c207472616e73666572206661696c656400000000000081525060200191505060405180910390fd5b5b505050565b600080610df6610e79565b610e13610e02856117ce565b60085461314b90919063ffffffff16565b811515610e1c57fe5b049050610e71600c60008573ffffffffffffffffffffffffffffffffffffffff1673ffffffffffffffffffffffffffffffffffffffff16815260200190815260200160002054826131d590919063ffffffff16565b915050919050565b6000600254905090565b6000610e908484846132a9565b610f298433610f2485600160008a73ffffffffffffffffffffffffffffffffffffffff1673ffffffffffffffffffffffffffffffffffffffff16815260200190815260200160002060003373ffffffffffffffffffffffffffffffffffffffff1673ffffffffffffffffffffffffffffffffffffffff168152602001908152602001600020546131d590919063ffffffff16565b612f50565b600190509392505050565b6000610fcf3384610fca85600160003373ffffffffffffffffffffffffffffffffffffffff1673ffffffffffffffffffffffffffffffffffffffff16815260200190815260200160002060008973ffffffffffffffffffffffffffffffffffffffff1673ffffffffffffffffffffffffffffffffffffffff1681526020019081526020016000205461321f90919063ffffffff16565b612f50565b6001905092915050565b6000610fe58484612d0d565b905081811015151561105f576040517f08c379a000000000000000000000000000000000000000000000000000000000815260040180806020018281038252601e8152602001807f6d696e696d756d2062757920616d6f756e74206e6f742072656163686564000081525060200191505060405180910390fd5b600560009054906101000a900473ffffffffffffffffffffffffffffffffffffffff1673ffffffffffffffffffffffffffffffffffffffff166323b872dd3330876040518463ffffffff1660e01b8152600401808473ffffffffffffffffffffffffffffffffffffffff1673ffffffffffffffffffffffffffffffffffffffff1681526020018373ffffffffffffffffffffffffffffffffffffffff1673ffffffffffffffffffffffffffffffffffffffff1681526020018281526020019350505050602060405180830381600087803b15801561113c57600080fd5b505af1158015611150573d6000803e3d6000fd5b505050506040513d602081101561116657600080fd5b810190808051906020019092919050505015156111eb576040517f08c379a00000000000000000000000000000000000000000000000000000000081526004018080602001828103825260148152602001807f636f7374207472616e73666572206661696c656400000000000000000000000081525060200191505060405180910390fd5b6000670de0b6b3a764000061120b6007548761314b90919063ffffffff16565b81151561121457fe5b04905061122c8160085461321f90919063ffffffff16565b600881905550600061124782876131d590919063ffffffff16565b9050600560009054906101000a900473ffffffffffffffffffffffffffffffffffffffff1673ffffffffffffffffffffffffffffffffffffffff1663095ea7b3600460009054906101000a900473ffffffffffffffffffffffffffffffffffffffff16836040518363ffffffff1660e01b8152600401808373ffffffffffffffffffffffffffffffffffffffff1673ffffffffffffffffffffffffffffffffffffffff16815260200182815260200192505050602060405180830381600087803b15801561131457600080fd5b505af1158015611328573d6000803e3d6000fd5b505050506040513d602081101561133e57600080fd5b810190808051906020019092919050505015156113c3576040517f08c379a000000000000000000000000000000000000000000000000000000000815260040180806020018281038252601a8152602001807f617070726f76616c20666f722073706c697473206661696c656400000000000081525060200191505060405180910390fd5b6113cc81613554565b600460009054906101000a900473ffffffffffffffffffffffffffffffffffffffff1673ffffffffffffffffffffffffffffffffffffffff1663f242432a3033600b8981548110151561141b57fe5b9060005260206000200154876040518563ffffffff1660e01b8152600401808573ffffffffffffffffffffffffffffffffffffffff1673ffffffffffffffffffffffffffffffffffffffff1681526020018473ffffffffffffffffffffffffffffffffffffffff1673ffffffffffffffffffffffffffffffffffffffff1681526020018381526020018281526020018060200182810382526000815260200160200195505050505050600060405180830381600087803b1580156114de57600080fd5b505af11580156114f2573d6000803e3d6000fd5b50505050843373ffffffffffffffffffffffffffffffffffffffff167f4f62630f51608fc8a7603a9391a5101e58bd7c276139366fc107dc3b67c3dcf888858760405180848152602001838152602001828152602001935050505060405180910390a3505050505050565b6000600b80549050821015156115db576040517f08c379a00000000000000000000000000000000000000000000000000000000081526004018080602001828103825260158152602001807f696e76616c6964206f7574636f6d6520696e646578000000000000000000000081525060200191505060405180910390fd5b60606115e5613762565b90506000611606600754670de0b6b3a76400006131d590919063ffffffff16565b611621670de0b6b3a76400008761314b90919063ffffffff16565b81151561162a57fe5b0490506000828581518110151561163d57fe5b9060200190602002015190506000611666670de0b6b3a76400008361314b90919063ffffffff16565b905060008090505b84518110156116e45786811415156116d7576000858281518110151561169057fe5b9060200190602002015190506116d36116b286836131d590919063ffffffff16565b6116c5838661314b90919063ffffffff16565b61399a90919063ffffffff16565b9250505b808060010191505061166e565b5060008111151561175d576040517f08c379a000000000000000000000000000000000000000000000000000000000815260040180806020018281038252601b8152602001807f6d7573742068617665206e6f6e2d7a65726f2062616c616e636573000000000081525060200191505060405180910390fd5b61179c8261178e61177f670de0b6b3a76400008561399a90919063ffffffff16565b8661321f90919063ffffffff16565b6131d590919063ffffffff16565b94505050505092915050565b600460009054906101000a900473ffffffffffffffffffffffffffffffffffffffff1681565b60008060008373ffffffffffffffffffffffffffffffffffffffff1673ffffffffffffffffffffffffffffffffffffffff168152602001908152602001600020549050919050565b600061182f600d546008546131d590919063ffffffff16565b905090565b60006118cf33846118ca85600160003373ffffffffffffffffffffffffffffffffffffffff1673ffffffffffffffffffffffffffffffffffffffff16815260200190815260200160002060008973ffffffffffffffffffffffffffffffffffffffff1673ffffffffffffffffffffffffffffffffffffffff168152602001908152602001600020546131d590919063ffffffff16565b612f50565b6001905092915050565b60006118e63384846132a9565b6001905092915050565b600560009054906101000a900473ffffffffffffffffffffffffffffffffffffffff1681565b60003073ffffffffffffffffffffffffffffffffffffffff168973ffffffffffffffffffffffffffffffffffffffff1614801561197f5750600073ffffffffffffffffffffffffffffffffffffffff168873ffffffffffffffffffffffffffffffffffffffff16145b156119935763bc197c8160e01b905061199b565b600060e01b90505b98975050505050505050565b60006119b3848461155d565b9050818111151515611a2d576040517f08c379a000000000000000000000000000000000000000000000000000000000815260040180806020018281038252601c8152602001807f6d6178696d756d2073656c6c20616d6f756e742065786365656465640000000081525060200191505060405180910390fd5b600460009054906101000a900473ffffffffffffffffffffffffffffffffffffffff1673ffffffffffffffffffffffffffffffffffffffff1663f242432a3330600b87815481101515611a7c57fe5b9060005260206000200154856040518563ffffffff1660e01b8152600401808573ffffffffffffffffffffffffffffffffffffffff1673ffffffffffffffffffffffffffffffffffffffff1681526020018473ffffffffffffffffffffffffffffffffffffffff1673ffffffffffffffffffffffffffffffffffffffff1681526020018381526020018281526020018060200182810382526000815260200160200195505050505050600060405180830381600087803b158015611b3f57600080fd5b505af1158015611b53573d6000803e3d6000fd5b505050506000611b76600754670de0b6b3a76400006131d590919063ffffffff16565b611b8b6007548761314b90919063ffffffff16565b811515611b9457fe5b049050611bac8160085461321f90919063ffffffff16565b6008819055506000611bc7828761321f90919063ffffffff16565b9050611bd2816139d2565b600560009054906101000a900473ffffffffffffffffffffffffffffffffffffffff1673ffffffffffffffffffffffffffffffffffffffff1663a9059cbb33886040518363ffffffff1660e01b8152600401808373ffffffffffffffffffffffffffffffffffffffff1673ffffffffffffffffffffffffffffffffffffffff16815260200182815260200192505050602060405180830381600087803b158015611c7b57600080fd5b505af1158015611c8f573d6000803e3d6000fd5b505050506040513d6020811015611ca557600080fd5b81019080805190602001909291905050501515611d2a576040517f08c379a00000000000000000000000000000000000000000000000000000000081526004018080602001828103825260168152602001807f72657475726e207472616e73666572206661696c65640000000000000000000081525060200191505060405180910390fd5b843373ffffffffffffffffffffffffffffffffffffffff167fadcf2a240ed9300d681d9a3f5382b6c1beed1b7e46643e0c7b42cbe6e2d766b488858760405180848152602001838152602001828152602001935050505060405180910390a3505050505050565b600083111515611e09576040517f08c379a00000000000000000000000000000000000000000000000000000000081526004018080602001828103825260188152602001807f66756e64696e67206d757374206265206e6f6e2d7a65726f000000000000000081525060200191505060405180910390fd5b6060600b80549050604051908082528060200260200182016040528015611e3f5781602001602082028038833980820191505090505b5090506000611e4c610e79565b9050600080821115611fba57600085859050141515611eb6576040517f08c379a00000000000000000000000000000000000000000000000000000000081526004018080602001828103825260328152602001806143606032913960400191505060405180910390fd5b6060611ec0613762565b9050600080905060008090505b8251811015611f0c5760008382815181101515611ee657fe5b90602001906020020151905080831015611efe578092505b508080600101915050611ecd565b5060008090505b8251811015611f9257600082611f498584815181101515611f3057fe5b906020019060200201518c61314b90919063ffffffff16565b811515611f5257fe5b049050611f68818b6131d590919063ffffffff16565b8783815181101515611f7657fe5b9060200190602002018181525050508080600101915050611f13565b5080611fa7858a61314b90919063ffffffff16565b811515611fb057fe5b0492505050612192565b600085859050111561218e57600b8054905085859050141515612045576040517f08c379a000000000000000000000000000000000000000000000000000000000815260040180806020018281038252600f8152602001807f68696e74206c656e677468206f6666000000000000000000000000000000000081525060200191505060405180910390fd5b600080905060008090505b8686905081101561208e576000878783818110151561206b57fe5b90506020020135905080831015612080578092505b508080600101915050612050565b5060008090505b8686905081101561218b576000826120ca89898581811015156120b457fe5b905060200201358b61314b90919063ffffffff16565b8115156120d357fe5b04905060008111151561214e576040517f08c379a000000000000000000000000000000000000000000000000000000000815260040180806020018281038252601e8152602001807f6d7573742068696e7420612076616c696420646973747269627574696f6e000081525060200191505060405180910390fd5b612161818a6131d590919063ffffffff16565b868381518110151561216f57fe5b9060200190602002018181525050508080600101915050612095565b50505b8590505b600560009054906101000a900473ffffffffffffffffffffffffffffffffffffffff1673ffffffffffffffffffffffffffffffffffffffff166323b872dd3330896040518463ffffffff1660e01b8152600401808473ffffffffffffffffffffffffffffffffffffffff1673ffffffffffffffffffffffffffffffffffffffff1681526020018373ffffffffffffffffffffffffffffffffffffffff1673ffffffffffffffffffffffffffffffffffffffff1681526020018281526020019350505050602060405180830381600087803b15801561226f57600080fd5b505af1158015612283573d6000803e3d6000fd5b505050506040513d602081101561229957600080fd5b8101908080519060200190929190505050151561231e576040517f08c379a00000000000000000000000000000000000000000000000000000000081526004018080602001828103825260178152602001807f66756e64696e67207472616e73666572206661696c656400000000000000000081525060200191505060405180910390fd5b600560009054906101000a900473ffffffffffffffffffffffffffffffffffffffff1673ffffffffffffffffffffffffffffffffffffffff1663095ea7b3600460009054906101000a900473ffffffffffffffffffffffffffffffffffffffff16886040518363ffffffff1660e01b8152600401808373ffffffffffffffffffffffffffffffffffffffff1673ffffffffffffffffffffffffffffffffffffffff16815260200182815260200192505050602060405180830381600087803b1580156123e957600080fd5b505af11580156123fd573d6000803e3d6000fd5b505050506040513d602081101561241357600080fd5b81019080805190602001909291905050501515612498576040517f08c379a000000000000000000000000000000000000000000000000000000000815260040180806020018281038252601a8152602001807f617070726f76616c20666f722073706c697473206661696c656400000000000081525060200191505060405180910390fd5b6124a186613554565b6124ab3382613bda565b600460009054906101000a900473ffffffffffffffffffffffffffffffffffffffff1673ffffffffffffffffffffffffffffffffffffffff16632eb2c2d63033600b876040518563ffffffff1660e01b8152600401808573ffffffffffffffffffffffffffffffffffffffff1673ffffffffffffffffffffffffffffffffffffffff1681526020018473ffffffffffffffffffffffffffffffffffffffff1673ffffffffffffffffffffffffffffffffffffffff16815260200180602001806020018060200184810384528681815481526020019150805480156125ae57602002820191906000526020600020905b81548152602001906001019080831161259a575b5050848103835285818151815260200191508051906020019060200280838360005b838110156125eb5780820151818401526020810190506125d0565b50505050905001848103825260008152602001602001975050505050505050600060405180830381600087803b15801561262457600080fd5b505af1158015612638573d6000803e3d6000fd5b5050505060008090505b835181101561269e57612675848281518110151561265c57fe5b90602001906020020151886131d590919063ffffffff16565b848281518110151561268357fe5b90602001906020020181815250508080600101915050612642565b503373ffffffffffffffffffffffffffffffffffffffff167fec2dc3e5a3bb9aa0a1deb905d2bd23640d07f107e6ceb484024501aad964a95184836040518080602001838152602001828103825284818151815260200191508051906020019060200280838360005b83811015612722578082015181840152602081019050612707565b50505050905001935050505060405180910390a2505050505050565b60068181548110151561274d57fe5b906000526020600020016000915090505481565b6000600160008473ffffffffffffffffffffffffffffffffffffffff1673ffffffffffffffffffffffffffffffffffffffff16815260200190815260200160002060008373ffffffffffffffffffffffffffffffffffffffff1673ffffffffffffffffffffffffffffffffffffffff16815260200190815260200160002054905092915050565b60075481565b60606127f8613762565b90506060815160405190808252806020026020018201604052801561282c5781602001602082028038833980820191505090505b5090506000612839610e79565b905060008090505b83518110156128a8578161287586868481518110151561285d57fe5b9060200190602002015161314b90919063ffffffff16565b81151561287e57fe5b04838281518110151561288d57fe5b90602001906020020181815250508080600101915050612841565b506000600560009054906101000a900473ffffffffffffffffffffffffffffffffffffffff1673ffffffffffffffffffffffffffffffffffffffff166370a08231306040518263ffffffff1660e01b8152600401808273ffffffffffffffffffffffffffffffffffffffff1673ffffffffffffffffffffffffffffffffffffffff16815260200191505060206040518083038186803b15801561294a57600080fd5b505afa15801561295e573d6000803e3d6000fd5b505050506040513d602081101561297457600080fd5b810190808051906020019092919050505090506129913386613da3565b612a7d600560009054906101000a900473ffffffffffffffffffffffffffffffffffffffff1673ffffffffffffffffffffffffffffffffffffffff166370a08231306040518263ffffffff1660e01b8152600401808273ffffffffffffffffffffffffffffffffffffffff1673ffffffffffffffffffffffffffffffffffffffff16815260200191505060206040518083038186803b158015612a3357600080fd5b505afa158015612a47573d6000803e3d6000fd5b505050506040513d6020811015612a5d57600080fd5b8101908080519060200190929190505050826131d590919063ffffffff16565b9050600460009054906101000a900473ffffffffffffffffffffffffffffffffffffffff1673ffffffffffffffffffffffffffffffffffffffff16632eb2c2d63033600b876040518563ffffffff1660e01b8152600401808573ffffffffffffffffffffffffffffffffffffffff1673ffffffffffffffffffffffffffffffffffffffff1681526020018473ffffffffffffffffffffffffffffffffffffffff1673ffffffffffffffffffffffffffffffffffffffff1681526020018060200180602001806020018481038452868181548152602001915080548015612b8257602002820191906000526020600020905b815481526020019060010190808311612b6e575b5050848103835285818151815260200191508051906020019060200280838360005b83811015612bbf578082015181840152602081019050612ba4565b50505050905001848103825260008152602001602001975050505050505050600060405180830381600087803b158015612bf857600080fd5b505af1158015612c0c573d6000803e3d6000fd5b505050503373ffffffffffffffffffffffffffffffffffffffff167f8b4b2c8ebd04c47fc8bce136a85df9b93fcb1f47c8aa296457d4391519d190e78483886040518080602001848152602001838152602001828103825285818151815260200191508051906020019060200280838360005b83811015612c9a578082015181840152602081019050612c7f565b5050505090500194505050505060405180910390a25050505050565b60003073ffffffffffffffffffffffffffffffffffffffff168773ffffffffffffffffffffffffffffffffffffffff161415612cfb5763f23a6e6160e01b9050612d03565b600060e01b90505b9695505050505050565b6000600b8054905082101515612d8b576040517f08c379a00000000000000000000000000000000000000000000000000000000081526004018080602001828103825260158152602001807f696e76616c6964206f7574636f6d6520696e646578000000000000000000000081525060200191505060405180910390fd5b6060612d95613762565b90506000612dd3670de0b6b3a7640000612dba6007548861314b90919063ffffffff16565b811515612dc357fe5b04866131d590919063ffffffff16565b905060008285815181101515612de557fe5b9060200190602002015190506000612e0e670de0b6b3a76400008361314b90919063ffffffff16565b905060008090505b8451811015612e8c578681141515612e7f5760008582815181101515612e3857fe5b906020019060200201519050612e7b612e5a868361321f90919063ffffffff16565b612e6d838661314b90919063ffffffff16565b61399a90919063ffffffff16565b9250505b8080600101915050612e16565b50600081111515612f05576040517f08c379a000000000000000000000000000000000000000000000000000000000815260040180806020018281038252601b8152602001807f6d7573742068617665206e6f6e2d7a65726f2062616c616e636573000000000081525060200191505060405180910390fd5b612f44612f23670de0b6b3a76400008361399a90919063ffffffff16565b612f36858561321f90919063ffffffff16565b6131d590919063ffffffff16565b94505050505092915050565b600073ffffffffffffffffffffffffffffffffffffffff168373ffffffffffffffffffffffffffffffffffffffff1614151515612fd8576040517f08c379a00000000000000000000000000000000000000000000000000000000081526004018080602001828103825260248152602001806143f96024913960400191505060405180910390fd5b600073ffffffffffffffffffffffffffffffffffffffff168273ffffffffffffffffffffffffffffffffffffffff1614151515613060576040517f08c379a000000000000000000000000000000000000000000000000000000000815260040180806020018281038252602281526020018061433e6022913960400191505060405180910390fd5b80600160008573ffffffffffffffffffffffffffffffffffffffff1673ffffffffffffffffffffffffffffffffffffffff16815260200190815260200160002060008473ffffffffffffffffffffffffffffffffffffffff1673ffffffffffffffffffffffffffffffffffffffff168152602001908152602001600020819055508173ffffffffffffffffffffffffffffffffffffffff168373ffffffffffffffffffffffffffffffffffffffff167f8c5be1e5ebec7d5bd14f71427d1e84f3dd0314c0f7b2291e5b200ac8c7c3b925836040518082815260200191505060405180910390a3505050565b60008083141561315e57600090506131cf565b6000828402905082848281151561317157fe5b041415156131ca576040517f08c379a00000000000000000000000000000000000000000000000000000000081526004018080602001828103825260218152602001806143926021913960400191505060405180910390fd5b809150505b92915050565b600061321783836040518060400160405280601e81526020017f536166654d6174683a207375627472616374696f6e206f766572666c6f770000815250613f4f565b905092915050565b600080828401905083811015151561329f576040517f08c379a000000000000000000000000000000000000000000000000000000000815260040180806020018281038252601b8152602001807f536166654d6174683a206164646974696f6e206f766572666c6f77000000000081525060200191505060405180910390fd5b8091505092915050565b600073ffffffffffffffffffffffffffffffffffffffff168373ffffffffffffffffffffffffffffffffffffffff1614151515613331576040517f08c379a00000000000000000000000000000000000000000000000000000000081526004018080602001828103825260258152602001806143d46025913960400191505060405180910390fd5b600073ffffffffffffffffffffffffffffffffffffffff168273ffffffffffffffffffffffffffffffffffffffff16141515156133b9576040517f08c379a000000000000000000000000000000000000000000000000000000000815260040180806020018281038252602381526020018061431b6023913960400191505060405180910390fd5b6133c4838383614011565b613415816000808673ffffffffffffffffffffffffffffffffffffffff1673ffffffffffffffffffffffffffffffffffffffff168152602001908152602001600020546131d590919063ffffffff16565b6000808573ffffffffffffffffffffffffffffffffffffffff1673ffffffffffffffffffffffffffffffffffffffff168152602001908152602001600020819055506134a8816000808573ffffffffffffffffffffffffffffffffffffffff1673ffffffffffffffffffffffffffffffffffffffff1681526020019081526020016000205461321f90919063ffffffff16565b6000808473ffffffffffffffffffffffffffffffffffffffff1673ffffffffffffffffffffffffffffffffffffffff168152602001908152602001600020819055508173ffffffffffffffffffffffffffffffffffffffff168373ffffffffffffffffffffffffffffffffffffffff167fddf252ad1be2c89b69c2b068fc378daa952ba7f163c4a11628f55a4df523b3ef836040518082815260200191505060405180910390a3505050565b600060016006805490500390505b60008112151561375e57606061359060098381548110151561358057fe5b90600052602060002001546142a4565b905060008090505b600a838154811015156135a757fe5b906000526020600020018054905081101561374e57600460009054906101000a900473ffffffffffffffffffffffffffffffffffffffff1673ffffffffffffffffffffffffffffffffffffffff166372ce4275600560009054906101000a900473ffffffffffffffffffffffffffffffffffffffff16600a8681548110151561362c57fe5b906000526020600020018481548110151561364357fe5b906000526020600020015460068781548110151561365d57fe5b906000526020600020015486896040518663ffffffff1660e01b8152600401808673ffffffffffffffffffffffffffffffffffffffff1673ffffffffffffffffffffffffffffffffffffffff16815260200185815260200184815260200180602001838152602001828103825284818151815260200191508051906020019060200280838360005b838110156137005780820151818401526020810190506136e5565b505050509050019650505050505050600060405180830381600087803b15801561372957600080fd5b505af115801561373d573d6000803e3d6000fd5b505050508080600101915050613598565b5050808060019003915050613562565b5050565b606080600b805490506040519080825280602002602001820160405280156137995781602001602082028038833980820191505090505b50905060008090505b600b80549050811015613807573082828151811015156137be57fe5b9060200190602002019073ffffffffffffffffffffffffffffffffffffffff16908173ffffffffffffffffffffffffffffffffffffffff168152505080806001019150506137a2565b50600460009054906101000a900473ffffffffffffffffffffffffffffffffffffffff1673ffffffffffffffffffffffffffffffffffffffff16634e1273f482600b6040518363ffffffff1660e01b8152600401808060200180602001838103835285818151815260200191508051906020019060200280838360005b8381101561389f578082015181840152602081019050613884565b5050505090500183810382528481815481526020019150805480156138e357602002820191906000526020600020905b8154815260200190600101908083116138cf575b505094505050505060006040518083038186803b15801561390357600080fd5b505afa158015613917573d6000803e3d6000fd5b505050506040513d6000823e3d601f19601f82011682018060405250602081101561394157600080fd5b81019080805164010000000081111561395957600080fd5b8281019050602081018481111561396f57600080fd5b815185602082028301116401000000008211171561398c57600080fd5b505092919050505091505090565b6000808311156139bd57600182600185038115156139b457fe5b040190506139cc565b81838115156139c857fe5b0490505b92915050565b60008090505b600680549050811015613bd6576060613a096009838154811015156139f957fe5b90600052602060002001546142a4565b905060008090505b600a83815481101515613a2057fe5b9060005260206000200180549050811015613bc757600460009054906101000a900473ffffffffffffffffffffffffffffffffffffffff1673ffffffffffffffffffffffffffffffffffffffff16639e7212ad600560009054906101000a900473ffffffffffffffffffffffffffffffffffffffff16600a86815481101515613aa557fe5b9060005260206000200184815481101515613abc57fe5b9060005260206000200154600687815481101515613ad657fe5b906000526020600020015486896040518663ffffffff1660e01b8152600401808673ffffffffffffffffffffffffffffffffffffffff1673ffffffffffffffffffffffffffffffffffffffff16815260200185815260200184815260200180602001838152602001828103825284818151815260200191508051906020019060200280838360005b83811015613b79578082015181840152602081019050613b5e565b505050509050019650505050505050600060405180830381600087803b158015613ba257600080fd5b505af1158015613bb6573d6000803e3d6000fd5b505050508080600101915050613a11565b505080806001019150506139d8565b5050565b600073ffffffffffffffffffffffffffffffffffffffff168273ffffffffffffffffffffffffffffffffffffffff1614151515613c7f576040517f08c379a000000000000000000000000000000000000000000000000000000000815260040180806020018281038252601f8152602001807f45524332303a206d696e7420746f20746865207a65726f20616464726573730081525060200191505060405180910390fd5b613c8b60008383614011565b613ca08160025461321f90919063ffffffff16565b600281905550613cf7816000808573ffffffffffffffffffffffffffffffffffffffff1673ffffffffffffffffffffffffffffffffffffffff1681526020019081526020016000205461321f90919063ffffffff16565b6000808473ffffffffffffffffffffffffffffffffffffffff1673ffffffffffffffffffffffffffffffffffffffff168152602001908152602001600020819055508173ffffffffffffffffffffffffffffffffffffffff16600073ffffffffffffffffffffffffffffffffffffffff167fddf252ad1be2c89b69c2b068fc378daa952ba7f163c4a11628f55a4df523b3ef836040518082815260200191505060405180910390a35050565b600073ffffffffffffffffffffffffffffffffffffffff168273ffffffffffffffffffffffffffffffffffffffff1614151515613e2b576040517f08c379a00000000000000000000000000000000000000000000000000000000081526004018080602001828103825260218152602001806143b36021913960400191505060405180910390fd5b613e3782600083614011565b613e88816000808573ffffffffffffffffffffffffffffffffffffffff1673ffffffffffffffffffffffffffffffffffffffff168152602001908152602001600020546131d590919063ffffffff16565b6000808473ffffffffffffffffffffffffffffffffffffffff1673ffffffffffffffffffffffffffffffffffffffff16815260200190815260200160002081905550613edf816002546131d590919063ffffffff16565b600281905550600073ffffffffffffffffffffffffffffffffffffffff168273ffffffffffffffffffffffffffffffffffffffff167fddf252ad1be2c89b69c2b068fc378daa952ba7f163c4a11628f55a4df523b3ef836040518082815260200191505060405180910390a35050565b60008383111582901515613ffe576040517f08c379a00000000000000000000000000000000000000000000000000000000081526004018080602001828103825283818151815260200191508051906020019080838360005b83811015613fc3578082015181840152602081019050613fa8565b50505050905090810190601f168015613ff05780820380516001836020036101000a031916815260200191505b509250505060405180910390fd5b5060008385039050809150509392505050565b600073ffffffffffffffffffffffffffffffffffffffff168373ffffffffffffffffffffffffffffffffffffffff161415156140515761405083610b9c565b5b600061405b610e79565b9050600080821461408b578161407c8460085461314b90919063ffffffff16565b81151561408557fe5b0461408d565b825b9050600073ffffffffffffffffffffffffffffffffffffffff168573ffffffffffffffffffffffffffffffffffffffff1614151561417a5761411781600c60008873ffffffffffffffffffffffffffffffffffffffff1673ffffffffffffffffffffffffffffffffffffffff168152602001908152602001600020546131d590919063ffffffff16565b600c60008773ffffffffffffffffffffffffffffffffffffffff1673ffffffffffffffffffffffffffffffffffffffff1681526020019081526020016000208190555061416f81600d546131d590919063ffffffff16565b600d81905550614196565b61418f8160085461321f90919063ffffffff16565b6008819055505b600073ffffffffffffffffffffffffffffffffffffffff168473ffffffffffffffffffffffffffffffffffffffff161415156142815761421e81600c60008773ffffffffffffffffffffffffffffffffffffffff1673ffffffffffffffffffffffffffffffffffffffff1681526020019081526020016000205461321f90919063ffffffff16565b600c60008673ffffffffffffffffffffffffffffffffffffffff1673ffffffffffffffffffffffffffffffffffffffff1681526020019081526020016000208190555061427681600d5461321f90919063ffffffff16565b600d8190555061429d565b614296816008546131d590919063ffffffff16565b6008819055505b5050505050565b6060816040519080825280602002602001820160405280156142d55781602001602082028038833980820191505090505b50905060008090505b8281101561431457806001901b82828151811015156142f957fe5b906020019060200201818152505080806001019150506142de565b5091905056fe45524332303a207472616e7366657220746f20746865207a65726f206164647265737345524332303a20617070726f766520746f20746865207a65726f206164647265737363616e6e6f742075736520646973747269627574696f6e2068696e7420616674657220696e697469616c2066756e64696e67536166654d6174683a206d756c7469706c69636174696f6e206f766572666c6f7745524332303a206275726e2066726f6d20746865207a65726f206164647265737345524332303a207472616e736665722066726f6d20746865207a65726f206164647265737345524332303a20617070726f76652066726f6d20746865207a65726f2061646472657373a165627a7a72305820a3dca28a3b5490cab1a42bf2acd8b4abdbf085aa64d01c57bf62b85179a661030029",
  "devdoc": {
    "methods": {
      "supportsInterface(bytes4)": {
        "details": "See {IERC165-supportsInterface}.     * Time complexity O(1), guaranteed to always use less than 30 000 gas."
      }
    }
  },
  "userdoc": {
    "methods": {}
  }
}